{
  "contractName": "Verifier",
  "abi": [
    {
      "constant": true,
      "inputs": [],
      "name": "threshold",
      "outputs": [
        {
          "name": "",
          "type": "uint256"
        }
      ],
      "payable": false,
      "stateMutability": "view",
      "type": "function"
    },
    {
      "constant": true,
      "inputs": [
        {
          "name": "",
          "type": "uint256"
        }
      ],
      "name": "ownersArr",
      "outputs": [
        {
          "name": "",
          "type": "address"
        }
      ],
      "payable": false,
      "stateMutability": "view",
      "type": "function"
    },
    {
      "constant": true,
      "inputs": [],
      "name": "nonce",
      "outputs": [
        {
          "name": "",
          "type": "uint256"
        }
      ],
      "payable": false,
      "stateMutability": "view",
      "type": "function"
    },
    {
      "payable": true,
      "stateMutability": "payable",
      "type": "fallback"
    },
    {
      "anonymous": false,
      "inputs": [
        {
          "indexed": true,
          "name": "theHash",
          "type": "bytes32"
        }
      ],
      "name": "LogMyHash",
      "type": "event"
    },
    {
      "anonymous": false,
      "inputs": [
        {
          "indexed": true,
          "name": "theAddress",
          "type": "address"
        }
      ],
      "name": "LogMyAddress",
      "type": "event"
    },
    {
      "anonymous": false,
      "inputs": [
        {
          "indexed": false,
          "name": "from",
          "type": "address"
        },
        {
          "indexed": false,
          "name": "transactionId",
          "type": "uint256"
        }
      ],
      "name": "TransactionCreated",
      "type": "event"
    },
    {
      "anonymous": false,
      "inputs": [
        {
          "indexed": false,
          "name": "from",
          "type": "address"
        },
        {
          "indexed": false,
          "name": "transactionId",
          "type": "uint256"
        }
      ],
      "name": "TransactionCompleted",
      "type": "event"
    },
    {
      "anonymous": false,
      "inputs": [
        {
          "indexed": false,
          "name": "by",
          "type": "address"
        },
        {
          "indexed": false,
          "name": "transactionId",
          "type": "uint256"
        }
      ],
      "name": "TransactionSigned",
      "type": "event"
    },
    {
      "constant": true,
      "inputs": [
        {
          "name": "msgHash",
          "type": "bytes32"
        },
        {
          "name": "v",
          "type": "uint8"
        },
        {
          "name": "r",
          "type": "bytes32"
        },
        {
          "name": "s",
          "type": "bytes32"
        }
      ],
      "name": "recoverAddr",
      "outputs": [
        {
          "name": "",
          "type": "address"
        }
      ],
      "payable": false,
      "stateMutability": "pure",
      "type": "function"
    },
    {
      "constant": true,
      "inputs": [
        {
          "name": "_addr",
          "type": "address"
        },
        {
          "name": "msgHash",
          "type": "bytes32"
        },
        {
          "name": "v",
          "type": "uint8"
        },
        {
          "name": "r",
          "type": "bytes32"
        },
        {
          "name": "s",
          "type": "bytes32"
        }
      ],
      "name": "isSigned",
      "outputs": [
        {
          "name": "",
          "type": "bool"
        }
      ],
      "payable": false,
      "stateMutability": "pure",
      "type": "function"
    },
    {
      "constant": false,
      "inputs": [
        {
          "name": "msgHash",
          "type": "bytes32"
        }
      ],
      "name": "createTransaction",
      "outputs": [],
      "payable": false,
      "stateMutability": "nonpayable",
      "type": "function"
    },
    {
      "constant": false,
      "inputs": [
        {
          "name": "transactionId",
          "type": "uint256"
        }
      ],
      "name": "signTransaction",
      "outputs": [],
      "payable": false,
      "stateMutability": "nonpayable",
      "type": "function"
    },
    {
      "constant": true,
      "inputs": [],
      "name": "getPendingTransactions",
      "outputs": [
        {
          "name": "",
          "type": "uint256[]"
        }
      ],
      "payable": false,
      "stateMutability": "view",
      "type": "function"
    },
    {
      "constant": false,
      "inputs": [
        {
          "name": "transactionId",
          "type": "uint256"
        }
      ],
      "name": "deleteTransaction",
      "outputs": [],
      "payable": false,
      "stateMutability": "nonpayable",
      "type": "function"
    },
    {
      "constant": false,
      "inputs": [
        {
          "name": "sigV",
          "type": "uint8[]"
        },
        {
          "name": "sigR",
          "type": "bytes32[]"
        },
        {
          "name": "sigS",
          "type": "bytes32[]"
        },
        {
          "name": "data",
          "type": "bytes32"
        }
      ],
      "name": "execute",
      "outputs": [],
      "payable": false,
      "stateMutability": "nonpayable",
      "type": "function"
    }
  ],
  "bytecode": "0x608060405234801561001057600080fd5b50610b81806100206000396000f3006080604052600436106100a25763ffffffff7c0100000000000000000000000000000000000000000000000000000000600035041662e9c00681146100a457806309b9d8ba146100bc57806342cde4e8146100d45780635d9ec210146100fb5780638677ebe814610113578063aa5df9e214610157578063affed0e01461018b578063c2b167bc146101a0578063d11db83f14610269578063e5df669f146102ce575b005b3480156100b057600080fd5b506100a26004356102f2565b3480156100c857600080fd5b506100a26004356103d7565b3480156100e057600080fd5b506100e96104d1565b60408051918252519081900360200190f35b34801561010757600080fd5b506100a26004356104d7565b34801561011f57600080fd5b50610143600160a060020a036004351660243560ff6044351660643560843561075d565b604080519115158252519081900360200190f35b34801561016357600080fd5b5061016f6004356107f7565b60408051600160a060020a039092168252519081900360200190f35b34801561019757600080fd5b506100e961081f565b3480156101ac57600080fd5b50604080516020600480358082013583810280860185019096528085526100a295369593946024949385019291829185019084908082843750506040805187358901803560208181028481018201909552818452989b9a998901989297509082019550935083925085019084908082843750506040805187358901803560208181028481018201909552818452989b9a99890198929750908201955093508392508501908490808284375094975050933594506108259350505050565b34801561027557600080fd5b5061027e6109e0565b60408051602080825283518183015283519192839290830191858101910280838360005b838110156102ba5781810151838201526020016102a2565b505050509050019250505060405180910390f35b3480156102da57600080fd5b5061016f60043560ff60243516604435606435610a39565b6000805b600254811015610375578160ff166001141561034857600280548290811061031a57fe5b906000526020600020015460026001830381548110151561033757fe5b60009182526020909120015561036d565b600280548290811061035657fe5b906000526020600020015483141561036d57600191505b6001016102f6565b60028054600019810190811061038757fe5b600091825260208220015560028054906103a5906000198301610af7565b50505060009081526001602081905260408220805473ffffffffffffffffffffffffffffffffffffffff191681550155565b60006103e1610b20565b600080546001808201835533808552602080860185815284865283825260408087208851815473ffffffffffffffffffffffffffffffffffffffff1916600160a060020a039091161781559151918501919091556002805494850181559095527f405787fa12a823e0f2b7631cc41b3ba8828b3321ca811111fa75cd3aa3bb5ace909201839055835190815290810182905282519194507fbee0a36f8f2ce3c4d9ded6f7c349c1f9d380c787784d84b2bead8455b7d7f92f92908290030190a160405183907f257bfd2d5f0c1471d95435a81df28ec021c8767150fd2a175ea2efa343a620e190600090a2505050565b60045481565b60008181526001602052604090208054600160a060020a0316151561055d57604080517f08c379a000000000000000000000000000000000000000000000000000000000815260206004820152601660248201527f5472616e73616374696f6e206d75737420657869737400000000000000000000604482015290519081900360640190fd5b8054600160a060020a03163314156105fc57604080517f08c379a000000000000000000000000000000000000000000000000000000000815260206004820152602160248201527f43726561746f722063616e6e6f74207369676e2061207472616e73616374696f60448201527f6e00000000000000000000000000000000000000000000000000000000000000606482015290519081900360840190fd5b33600090815260028201602052604090205460ff16600114156106a657604080517f08c379a000000000000000000000000000000000000000000000000000000000815260206004820152602860248201527f43616e6e6f74207369676e2061207472616e73616374696f6e206d6f7265207460448201527f68616e206f6e6365000000000000000000000000000000000000000000000000606482015290519081900360840190fd5b336000818152600283016020908152604091829020805460ff19166001908117909155848101805490910190558151928352820184905280517fac63e7e1dc16bccf900879686e74ca33eeb175b670e3aaa9d7e4ccf3781b7a7a9281900390910190a1600181015460021161075957604080513381526020810184905281517f0d3646d05be16a84e33bde90126ccd5aaf2d33df56af440ce4a079f214cc194b929181900390910190a1610759826102f2565b5050565b600080600061076b87610ab9565b604080516000808252602080830180855285905260ff8b1683850152606083018a9052608083018990529251939550600160a060020a038c169360019360a0808501949193601f19840193928390039091019190865af11580156107d3573d6000803e3d6000fd5b5050604051601f190151600160a060020a0316919091149998505050505050505050565b600680548290811061080557fe5b600091825260209091200154600160a060020a0316905081565b60035481565b60008060008060045487511415151561083d57600080fd5b8551875114158061085057508751875114155b151561085b57600080fd5b600354604080517f190000000000000000000000000000000000000000000000000000000000000081526000600182018190526c01000000000000000000000000300260028301526016820189905260368201939093529051908190036056019020945092508291505b6004548210156109cd5760018489848151811015156108e057fe5b9060200190602002015189858151811015156108f857fe5b90602001906020020151898681518110151561091057fe5b60209081029091018101516040805160008082528185018084529790975260ff9095168582015260608501939093526080840152905160a0808401949293601f19830193908390039091019190865af1158015610971573d6000803e3d6000fd5b50505060206040510351905082600160a060020a031681600160a060020a03161115806109b75750600160a060020a03811660009081526005602052604090205460ff16155b15156109c257600080fd5b9150600101816108c5565b5050600380546001019055505050505050565b60606002805480602002602001604051908101604052809291908181526020018280548015610a2e57602002820191906000526020600020905b815481526020019060010190808311610a1a575b505050505090505b90565b6000806000610a4787610ab9565b604080516000808252602080830180855285905260ff8b1683850152606083018a905260808301899052925193955060019360a08084019493601f19830193908390039091019190865af1158015610aa3573d6000803e3d6000fd5b5050604051601f19015198975050505050505050565b604080517f19457468657265756d205369676e6564204d6573736167653a0a3332000000008152601c8101839052905190819003603c019020919050565b815481835581811115610b1b57600083815260209020610b1b918101908301610b37565b505050565b604080518082019091526000808252602082015290565b610a3691905b80821115610b515760008155600101610b3d565b50905600a165627a7a72305820a3fa0e63973109c5cf6b1f823495502c233506a8725f20e30578dfaf727a43a10029",
  "source": "pragma solidity ^0.4.24;\ncontract Verifier {\n\n  event LogMyHash(bytes32 indexed theHash);\n  event LogMyAddress(address indexed theAddress);\n\n  event TransactionCreated(address from, uint transactionId);\n  event TransactionCompleted(address from, uint transactionId);\n  event TransactionSigned(address by, uint transactionId);\n\n  uint private _transactionIdx;\n  uint constant MIN_SIGNATURES = 2;\n\n  struct Transaction {\n    address from;\n    uint signatureCount;\n    mapping (address => uint8) signatures;\n  }\n\n  mapping (uint => Transaction) private _transactions;\n  uint[] private _pendingTransactions;\n\n  function recoverAddr(bytes32 msgHash, uint8 v, bytes32 r, bytes32 s) public pure returns (address) {\n    bytes32 message = prefixed(msgHash);\n    address signer = ecrecover(message, v, r, s);\n    return signer;\n  }\n\n  function prefixed(bytes32 hash) internal pure returns (bytes32) {\n        return keccak256(\"\\x19Ethereum Signed Message:\\n32\", hash);\n    }\n\n  function isSigned(address _addr, bytes32 msgHash, uint8 v, bytes32 r, bytes32 s) public pure returns (bool) {\n    bytes32 message = prefixed(msgHash);\n    bool signed = ecrecover(message, v, r, s) == _addr;\n    return signed;\n  }\n\n  function createTransaction(bytes32 msgHash) public {\n    uint transactionId = _transactionIdx++;\n    Transaction memory transaction;\n    transaction.from = msg.sender;\n    transaction.signatureCount = 0;\n\n    _transactions[transactionId] = transaction;\n    _pendingTransactions.push(transactionId);\n    emit TransactionCreated(msg.sender, transactionId);\n    emit LogMyHash(msgHash);\n  }\n\n  function signTransaction(uint transactionId) public {\n    Transaction storage transaction = _transactions[transactionId];\n    require(0x0 != transaction.from, \"Transaction must exist\");\n    require(msg.sender != transaction.from, \"Creator cannot sign a transaction\");\n    require(transaction.signatures[msg.sender] != 1, \"Cannot sign a transaction more than once\");\n    transaction.signatures[msg.sender] = 1;\n    transaction.signatureCount++;\n    emit TransactionSigned(msg.sender, transactionId);\n    if(transaction.signatureCount >= MIN_SIGNATURES){\n      emit TransactionCompleted(msg.sender, transactionId);\n      deleteTransaction(transactionId);\n    }\n  }\n\n  function getPendingTransactions() public view returns (uint[]) {\n    return _pendingTransactions;\n  }\n\n  function deleteTransaction(uint transactionId) public {\n    uint8 replace = 0;\n    for(uint i = 0; i < _pendingTransactions.length; i++) {\n      if(1 == replace) {\n        _pendingTransactions[i-1] = _pendingTransactions[i];\n      } else if(transactionId == _pendingTransactions[i]) {\n        replace = 1;\n      }\n    }\n    delete _pendingTransactions[_pendingTransactions.length - 1];\n    _pendingTransactions.length--;\n    delete _transactions[transactionId];\n  }\n\n  uint public nonce;                // (only) mutable state\n  uint public threshold;            // immutable state\n  mapping (address => bool) isOwner; // immutable state\n  address[] public ownersArr;        // immutable state\n/*\n  constructor (uint threshold_, address[] owners_) public {\n    require(owners_.length > 10 || threshold_ > owners_.length || threshold_ == 0);\n\n    for (uint i=0; i<owners_.length; i++) {\n      isOwner[owners_[i]] = true;\n    }\n    ownersArr = owners_;\n    threshold = threshold_;\n  }\n*/\n\n  // Note that address recovered from signatures must be strictly increasing\n  function execute(uint8[] sigV, bytes32[] sigR, bytes32[] sigS, bytes32 data) public {\n    require(sigR.length != threshold);\n    require(sigR.length != sigS.length || sigR.length != sigV.length);\n\n    // Follows ERC191 signature scheme: https://github.com/ethereum/EIPs/issues/191\n    bytes32 txHash = sha3(byte(0x19), byte(0), this, data, nonce);\n\n    address lastAdd = address(0); // cannot have address(0) as an owner\n    for (uint i = 0; i < threshold; i++) {\n        address recovered = ecrecover(txHash, sigV[i], sigR[i], sigS[i]);\n        require(recovered <= lastAdd || !isOwner[recovered]);\n        lastAdd = recovered;\n    }\n\n    // If we make it here all signatures are accounted for\n    nonce = nonce + 1;\n  }\n\n  function () public payable {}\n\n}\n",
  "sourcePath": "/home/lovro/ethereum-protocol/contracts/Verifier.sol",
  "compiler": {
    "name": "solc",
    "version": "0.4.24+commit.e67f0147.Emscripten.clang"
  },
  "schemaVersion": "2.0.1",
  "updatedAt": "2018-09-04T13:15:52.320Z"
}