{
  "contractName": "Verifier",
  "abi": [
    {
      "anonymous": false,
      "inputs": [
        {
          "indexed": true,
          "name": "theHash",
          "type": "bytes32"
        }
      ],
      "name": "LogMyHash",
      "type": "event"
    },
    {
      "anonymous": false,
      "inputs": [
        {
          "indexed": true,
          "name": "theAddress",
          "type": "address"
        }
      ],
      "name": "LogMyAddress",
      "type": "event"
    },
    {
      "anonymous": false,
      "inputs": [
        {
          "indexed": false,
          "name": "from",
          "type": "address"
        },
        {
          "indexed": false,
          "name": "transactionId",
          "type": "uint256"
        }
      ],
      "name": "TransactionCreated",
      "type": "event"
    },
    {
      "anonymous": false,
      "inputs": [
        {
          "indexed": false,
          "name": "from",
          "type": "address"
        },
        {
          "indexed": false,
          "name": "transactionId",
          "type": "uint256"
        }
      ],
      "name": "TransactionCompleted",
      "type": "event"
    },
    {
      "anonymous": false,
      "inputs": [
        {
          "indexed": false,
          "name": "by",
          "type": "address"
        },
        {
          "indexed": false,
          "name": "transactionId",
          "type": "uint256"
        }
      ],
      "name": "TransactionSigned",
      "type": "event"
    },
    {
      "constant": true,
      "inputs": [
        {
          "name": "msgHash",
          "type": "bytes32"
        },
        {
          "name": "v",
          "type": "uint8"
        },
        {
          "name": "r",
          "type": "bytes32"
        },
        {
          "name": "s",
          "type": "bytes32"
        }
      ],
      "name": "recoverAddr",
      "outputs": [
        {
          "name": "",
          "type": "address"
        }
      ],
      "payable": false,
      "stateMutability": "pure",
      "type": "function"
    },
    {
      "constant": true,
      "inputs": [
        {
          "name": "_addr",
          "type": "address"
        },
        {
          "name": "msgHash",
          "type": "bytes32"
        },
        {
          "name": "v",
          "type": "uint8"
        },
        {
          "name": "r",
          "type": "bytes32"
        },
        {
          "name": "s",
          "type": "bytes32"
        }
      ],
      "name": "isSigned",
      "outputs": [
        {
          "name": "",
          "type": "bool"
        }
      ],
      "payable": false,
      "stateMutability": "pure",
      "type": "function"
    },
    {
      "constant": false,
      "inputs": [
        {
          "name": "msgHash",
          "type": "bytes32"
        }
      ],
      "name": "createTransaction",
      "outputs": [],
      "payable": false,
      "stateMutability": "nonpayable",
      "type": "function"
    },
    {
      "constant": false,
      "inputs": [
        {
          "name": "transactionId",
          "type": "uint256"
        }
      ],
      "name": "signTransaction",
      "outputs": [],
      "payable": false,
      "stateMutability": "nonpayable",
      "type": "function"
    },
    {
      "constant": true,
      "inputs": [],
      "name": "getPendingTransactions",
      "outputs": [
        {
          "name": "",
          "type": "uint256[]"
        }
      ],
      "payable": false,
      "stateMutability": "view",
      "type": "function"
    },
    {
      "constant": false,
      "inputs": [
        {
          "name": "transactionId",
          "type": "uint256"
        }
      ],
      "name": "deleteTransaction",
      "outputs": [],
      "payable": false,
      "stateMutability": "nonpayable",
      "type": "function"
    }
  ],
  "bytecode": "0x608060405234801561001057600080fd5b5061084e806100206000396000f3006080604052600436106100765763ffffffff7c0100000000000000000000000000000000000000000000000000000000600035041662e9c006811461007b57806309b9d8ba146100955780635d9ec210146100ad5780638677ebe8146100c5578063d11db83f14610109578063e5df669f1461016e575b600080fd5b34801561008757600080fd5b506100936004356101ae565b005b3480156100a157600080fd5b50610093600435610293565b3480156100b957600080fd5b5061009360043561038d565b3480156100d157600080fd5b506100f5600160a060020a036004351660243560ff60443516606435608435610613565b604080519115158252519081900360200190f35b34801561011557600080fd5b5061011e6106ad565b60408051602080825283518183015283519192839290830191858101910280838360005b8381101561015a578181015183820152602001610142565b505050509050019250505060405180910390f35b34801561017a57600080fd5b5061019260043560ff60243516604435606435610706565b60408051600160a060020a039092168252519081900360200190f35b6000805b600254811015610231578160ff16600114156102045760028054829081106101d657fe5b90600052602060002001546002600183038154811015156101f357fe5b600091825260209091200155610229565b600280548290811061021257fe5b906000526020600020015483141561022957600191505b6001016101b2565b60028054600019810190811061024357fe5b600091825260208220015560028054906102619060001983016107c4565b50505060009081526001602081905260408220805473ffffffffffffffffffffffffffffffffffffffff191681550155565b600061029d6107ed565b600080546001808201835533808552602080860185815284865283825260408087208851815473ffffffffffffffffffffffffffffffffffffffff1916600160a060020a039091161781559151918501919091556002805494850181559095527f405787fa12a823e0f2b7631cc41b3ba8828b3321ca811111fa75cd3aa3bb5ace909201839055835190815290810182905282519194507fbee0a36f8f2ce3c4d9ded6f7c349c1f9d380c787784d84b2bead8455b7d7f92f92908290030190a160405183907f257bfd2d5f0c1471d95435a81df28ec021c8767150fd2a175ea2efa343a620e190600090a2505050565b60008181526001602052604090208054600160a060020a0316151561041357604080517f08c379a000000000000000000000000000000000000000000000000000000000815260206004820152601660248201527f5472616e73616374696f6e206d75737420657869737400000000000000000000604482015290519081900360640190fd5b8054600160a060020a03163314156104b257604080517f08c379a000000000000000000000000000000000000000000000000000000000815260206004820152602160248201527f43726561746f722063616e6e6f74207369676e2061207472616e73616374696f60448201527f6e00000000000000000000000000000000000000000000000000000000000000606482015290519081900360840190fd5b33600090815260028201602052604090205460ff166001141561055c57604080517f08c379a000000000000000000000000000000000000000000000000000000000815260206004820152602860248201527f43616e6e6f74207369676e2061207472616e73616374696f6e206d6f7265207460448201527f68616e206f6e6365000000000000000000000000000000000000000000000000606482015290519081900360840190fd5b336000818152600283016020908152604091829020805460ff19166001908117909155848101805490910190558151928352820184905280517fac63e7e1dc16bccf900879686e74ca33eeb175b670e3aaa9d7e4ccf3781b7a7a9281900390910190a1600181015460021161060f57604080513381526020810184905281517f0d3646d05be16a84e33bde90126ccd5aaf2d33df56af440ce4a079f214cc194b929181900390910190a161060f826101ae565b5050565b600080600061062187610786565b604080516000808252602080830180855285905260ff8b1683850152606083018a9052608083018990529251939550600160a060020a038c169360019360a0808501949193601f19840193928390039091019190865af1158015610689573d6000803e3d6000fd5b5050604051601f190151600160a060020a0316919091149998505050505050505050565b606060028054806020026020016040519081016040528092919081815260200182805480156106fb57602002820191906000526020600020905b8154815260200190600101908083116106e7575b505050505090505b90565b600080600061071487610786565b604080516000808252602080830180855285905260ff8b1683850152606083018a905260808301899052925193955060019360a08084019493601f19830193908390039091019190865af1158015610770573d6000803e3d6000fd5b5050604051601f19015198975050505050505050565b604080517f19457468657265756d205369676e6564204d6573736167653a0a3332000000008152601c8101839052905190819003603c019020919050565b8154818355818111156107e8576000838152602090206107e8918101908301610804565b505050565b604080518082019091526000808252602082015290565b61070391905b8082111561081e576000815560010161080a565b50905600a165627a7a7230582092cb15f990140ba3956b7ae1a3ef688c85c232728625166025bd16aa29045dba0029",
  "source": "pragma solidity ^0.4.24;\ncontract Verifier {\n\n  event LogMyHash(bytes32 indexed theHash);\n  event LogMyAddress(address indexed theAddress);\n\n  event TransactionCreated(address from, uint transactionId);\n  event TransactionCompleted(address from, uint transactionId);\n  event TransactionSigned(address by, uint transactionId);\n\n  uint private _transactionIdx;\n  uint constant MIN_SIGNATURES = 2;\n\n  struct Transaction {\n    address from;\n    uint signatureCount;\n    mapping (address => uint8) signatures;\n  }\n\n  mapping (uint => Transaction) private _transactions;\n  uint[] private _pendingTransactions;\n\n  function recoverAddr(bytes32 msgHash, uint8 v, bytes32 r, bytes32 s) public pure returns (address) {\n    bytes32 message = prefixed(msgHash);\n    address signer = ecrecover(message, v, r, s);\n    return signer;\n  }\n\n  function prefixed(bytes32 hash) internal pure returns (bytes32) {\n        return keccak256(\"\\x19Ethereum Signed Message:\\n32\", hash);\n    }\n\n  function isSigned(address _addr, bytes32 msgHash, uint8 v, bytes32 r, bytes32 s) public pure returns (bool) {\n    bytes32 message = prefixed(msgHash);\n    bool signed = ecrecover(message, v, r, s) == _addr;\n    return signed;\n  }\n\n  function createTransaction(bytes32 msgHash) public {\n    uint transactionId = _transactionIdx++;\n    Transaction memory transaction;\n    transaction.from = msg.sender;\n    transaction.signatureCount = 0;\n\n    _transactions[transactionId] = transaction;\n    _pendingTransactions.push(transactionId);\n    emit TransactionCreated(msg.sender, transactionId);\n    emit LogMyHash(msgHash);\n  }\n\n  function signTransaction(uint transactionId) public {\n    Transaction storage transaction = _transactions[transactionId];\n    require(0x0 != transaction.from, \"Transaction must exist\");\n    require(msg.sender != transaction.from, \"Creator cannot sign a transaction\");\n    require(transaction.signatures[msg.sender] != 1, \"Cannot sign a transaction more than once\");\n    transaction.signatures[msg.sender] = 1;\n    transaction.signatureCount++;\n    emit TransactionSigned(msg.sender, transactionId);\n    if(transaction.signatureCount >= MIN_SIGNATURES){\n      emit TransactionCompleted(msg.sender, transactionId);\n      deleteTransaction(transactionId);\n    }\n  }\n\n  function getPendingTransactions() public view returns (uint[]) {\n    return _pendingTransactions;\n  }\n\n  function deleteTransaction(uint transactionId) public {\n    uint8 replace = 0;\n    for(uint i = 0; i < _pendingTransactions.length; i++) {\n      if(1 == replace) {\n        _pendingTransactions[i-1] = _pendingTransactions[i];\n      } else if(transactionId == _pendingTransactions[i]) {\n        replace = 1;\n      }\n    }\n    delete _pendingTransactions[_pendingTransactions.length - 1];\n    _pendingTransactions.length--;\n    delete _transactions[transactionId];\n  }\n\n}\n",
  "sourcePath": "/home/lovro/ethereum-protocol/contracts/Verifier.sol",
  "compiler": {
    "name": "solc",
    "version": "0.4.24+commit.e67f0147.Emscripten.clang"
  },
  "schemaVersion": "2.0.1",
  "updatedAt": "2018-09-05T10:15:34.220Z"
}